:100000000C9434000C946E000C946E000C94CA0294
:100010000C946E000C946E000C946E000C946E00A8
:100020000C946E000C946E000C946E000C946E0098
:100030000C946E000C9495020C94F2060C946E00D5
:100040000C946E000C946E000C94A2010C941D0292
:100050000C9464020C946E000C946E000C946E0070
:100060000C9446040C946E0011241FBECFEFD4E014
:10007000DEBFCDBF0FB6F894A8958091600088616F
:1000800080936000109260000FBEF89484B7809354
:10009000790314BE8091790383FF07C090917803A0
:1000A000992319F0877F809379031092780312E0E7
:1000B000A0E0B1E0E6E4FEE002C005900D92A030C1
:1000C000B107D9F723E0A0E0B2E001C01D92A83744
:1000D000B207E1F70E94A5040C9421070C940000DC
:1000E000109281001092800010926F000895CF93BB
:1000F000DF93EC010E947000D195C195D109D09396
:100100008500C093840081E080936F00109280008E
:1001100085E080938100DF91CF91089510929C0239
:10012000EFECF2E0138283E080838091670290918C
:1001300068020C9477009CE99093C100EFECF2E028
:10014000818362838091D9029091DA022581368180
:10015000821B930B9087878386E080830895FC0140
:10016000319622E3DF011D922A95E9F7FC01108206
:1001700008950E94700010929C0210926902EFECA8
:10018000F2E08AE0DF011D928A95E9F71082089576
:100190000DB407FC04C01A9BFBCF80E0089581E0FA
:1001A0000895CF93C62F8EBD0E94C800882319F0F2
:1001B0008EB5CEBDF9CFCF91089590911003282F21
:1001C00030E0290F311D2D3231051CF190911003C3
:1001D000292F30E02233310544F4F901E25FFC4F6E
:1001E00049E043839F5F9093100390911003E92FA0
:1001F000F0E0E133F10544F4E25FFC4F25E02383B6
:1002000084839E5F9093100381E080930E0380E0CF
:10021000089581E00895CF93DF93D82FC62F82E011
:100220000E94DD00882371F080911003E82FF0E038
:10023000E133F1053CF4E25FFC4FD383C4838E5F6E
:1002400080931003DF91CF9108951F93CF93DF9395
:10025000182FD62FC42F83E00E94DD008823E1F001
:1002600080911003282F30E0223331053CF4F9014E
:10027000E25FFC4F13838F5F809310038091100324
:10028000E82FF0E0E133F1053CF4E25FFC4FD3836B
:10029000C4838E5F80931003DF91CF911F910895E7
:1002A00090910F0391110BC080930F038091D9029D
:1002B0009091DA02482F692F82E00C94250108956D
:1002C000CF93DF93C82FD62F80E80E9450014D2F87
:1002D0006C2F89E0DF91CF910C9425010F931F9330
:1002E000CF93DF93C82F8B01D42F82E0840F0E941D
:1002F000DD00882311F180911003E82FF0E0E13355
:10030000F1053CF4E25FFC4FC383D4838E5F80939E
:100310001003C09110038C2F90E04D2F50E09C01F2
:10032000240F351F2333310544F4B8018F5E9C4FF1
:100330000E941807CD0FC0931003DF91CF911F913A
:100340000F9108951F920F920FB60F9211242F93C1
:100350003F934F935F936F937F938F939F93AF934D
:10036000BF93EF93FF930E9470008091C000909123
:10037000C1006091C600282F2C7191F084FF04C049
:10038000682F6C7081E146C083FF04C0682F6471E0
:1003900082E140C082FF40C0682F687183E13AC0AB
:1003A0008091CF028250823010F080E133C0809182
:1003B0009C02282F30E02233310554F5F901E45630
:1003C000FD4F61838F5F80939C0291FD0CC08091F3
:1003D000D202680F6093D202809167029091680206
:1003E0000E94770019C080919C02813069F46623D5
:1003F00029F06F3F31F460E08AE00CC060E081E0FA
:1004000009C060E08CE006C084E08093CF0204C0A5
:1004100060E08DE00E949B00FF91EF91BF91AF9152
:100420009F918F917F916F915F914F913F912F910C
:100430000F900FBE0F901F9018951F920F920FB63E
:100440000F9211242F933F934F935F936F937F935A
:100450008F939F93AF93BF93EF93FF930E9470008E
:100460006091D80290916902691720F08EE00E9495
:100470009B0019C0E62FF0E0E759FD4F21818091E4
:10048000D8028F5F8093D8028091D802981303C05E
:100490008CED8093C1002093C600809167029091FB
:1004A00068020E947700FF91EF91BF91AF919F91F9
:1004B0008F917F916F915F914F913F912F910F900D
:1004C0000FBE0F901F9018951F920F920FB60F92AC
:1004D00011242F933F934F935F936F937F938F9349
:1004E0009F93AF93BF93EF93FF930E9470008CE9AB
:1004F0008093C1006091CF02623021F085E10E94BB
:100500009B0002C00E948E00FF91EF91BF91AF91BE
:100510009F918F917F916F915F914F913F912F911B
:100520000F900FBE0F901F9018951F920F920FB64D
:100530000F9211242F933F934F935F936F937F9369
:100540008F939F93AF93BF93EF93FF930E9470009D
:100550006091CF02653019F460E081E008C08EEF51
:10056000860F823010F48BE002C061E088E10E94C7
:100570009B00FF91EF91BF91AF919F918F917F91E0
:100580006F915F914F913F912F910F900FBE0F9000
:100590001F9018951F920F920FB60F921124EF9291
:1005A000FF920F931F932F933F934F935F936F93FC
:1005B0007F938F939F93AF93BF93CF93DF93EF93EB
:1005C000FF931A994CC1D0910E03C0914303DD23D0
:1005D00011F084E401C084E0C11180688EBD0E94E6
:1005E000C800882309F43BC18EB5982F9F709430C2
:1005F00041F01EBC0E94C800882309F430C18EB5AA
:1006000024C1807F803409F457C0803809F4DFC0EA
:1006100081111BC1D1110FC01EBC0E94C8008823CC
:1006200009F41DC18EB51EBC0E94C800882309F4C0
:1006300016C18EB507C1D0911003C1E0CD0FCEBD5C
:100640000E94C800882309F40AC18EB5EC2FF0E09F
:10065000E050FF4F1081C0910F03CEBD0E94C80033
:10066000882309F4FCC08EB5C127EC2FF0E0E050E0
:10067000FF4FC08100E010E00D17A0F4F801E25F29
:10068000FC4FF380FEBC0E94C8000F5F1F4F882301
:1006900009F4E5C08EB5CF25EC2FF0E0E050FF4F18
:1006A000C081EACFCEBD0E94C800882309F4D7C01C
:1006B0008EB5C0936602C6C01EBCCC2381F00E94DA
:1006C000C800882309F4CBC08EB51EBC0E94C800A8
:1006D000882309F4C4C08EB56EEF83E0BEC00E94CB
:1006E000C800882309F4BBC0CEB5C11103C06EEFAA
:1006F00082E0B3C0C23318F06EEF85E0AEC0EC2FDD
:10070000F0E0E050FF4F108180E0E82E82E0F82E0C
:10071000D0E01EBC0E94C800882309F4A0C0EEB53A
:10072000D701ED937D01E127F0E0E050FF4F10810C
:10073000DF5FCD13EECF1EBC0E94C800882309F4F2
:100740008EC00EB51EBC0E94C800882309F487C065
:100750008EB58FEF8EBD0E94C800882309F47FC03C
:100760008EB51EBD0E94C800882309F478C08EB5DE
:10077000E9E1E127F0E0E050FF4FD0810EBD0E949B
:10078000C800882309F46BC08EB5D027ED2FF0E0A8
:10079000E050FF4F80818EBD0E94C800882309F47D
:1007A0005EC08EB51013A3CF8091000280934403E6
:1007B000C1504C2F50E061E072E086E493E00E946B
:1007C0001807C093450381E0809343033BC082E058
:1007D0008EBD0E94C800882309F441C08EB5D09117
:1007E0001003DF5FDEBDE5EBED27F0E0E050FF4FEB
:1007F000C0810E94C800882391F10EB51091660255
:100800001EBDC127EC2FF0E0E050FF4FF0800E94AA
:10081000C800882321F1CEB5FEBC0E94C800882301
:10082000F1F08EB5D01302C081E01C1380E080FD92
:1008300003C06EEF84E011C010920F0310921003FA
:1008400010920E0361E080E008C01EBC0E94C80048
:10085000882329F08EB56EEF81E00E94D100FF91D0
:10086000EF91DF91CF91BF91AF919F918F917F9148
:100870006F915F914F913F912F911F910F91FF9039
:10088000EF900F900FBE0F901F9018951F920F9230
:100890000FB60F9211248F939F93EF93FF93809144
:1008A000B900887F803939F1B8F4803709F441C044
:1008B00060F48036F1F18836A9F181113AC085E9FA
:1008C0008093BC001092330237C08038A1F0883882
:1008D00031F1883771F526C0883B39F138F4803A18
:1008E00041F1883AF9F0883921F519C0883C09F1BD
:1008F000883F11F11EC09091BB0085EC8093BC0035
:1009000080913302E82FF0E0E133F105ACF4ED5CC7
:10091000FD4F118292838E5F809333020DC08091D0
:10092000BB0007C01092BB0004C01092BB0085E85A
:1009300001C085EC8093BC00FF91EF919F918F9156
:100940000F900FBE0F901F901895F8949BE088E1D0
:100950000FB6F894A895809360000FBE9093600046
:10096000A89514BC15BC10926E000E9470001092E5
:10097000680010926B001092DA021092D90216BC35
:1009800083E187BD82E080936E0084BD85BD529A6D
:100990008091BC0081608093BC005A988BED92E0FE
:1009A0000E94AF001092440310924503109243033B
:1009B00010920F031092100310920E038CE992E034
:1009C0000E94AF0089E692E00E94AF000E94B90049
:1009D0001092C50087E68093C40086E08093C20031
:1009E0008CE98093C1008EE590E09093680280933B
:1009F0006702A8951092BC001092B80080EF809317
:100A0000BA001092B90083E392E00E94AF0085EC37
:100A10008093BC00249A80E48CBD1DBC8DB58EB53E
:100A20008091680081608093680080916B00846091
:100A300080936B0080917A008F7780937A0081E4B5
:100A40008093640082E00E94500143E062E081E014
:100A50000E9425016091790383E00E940B0181E0EF
:100A600080930E03D1E012E00DE93CE9F32E4CEB4C
:100A7000E42E5AEAD52ECC24CA94A895F894C091B5
:100A80003302CC23A9F080910F03811111C0809112
:100A9000CF0281110DC083E00E9450014C2F64E30E
:100AA00072E081E20E946E0110923302D0930E0335
:100AB00078940000F89480910F03882329F083B183
:100AC00082FB882780F901C080E080FF0BC0809105
:100AD000BC00853469F48091BC008E7F8093BC009B
:100AE0005A9A06C08091BC0081608093BC005A98DD
:100AF00078940000F89480914303882309F4F5C0AA
:100B000080910F038111F1C060914403613079F449
:100B100080914503882311F060E02BC081E00E94A2
:100B2000500143E062E081E00E9425011AC062307A
:100B300019F41092790330C06330E9F480914503D1
:100B4000813051F790914603913031F09F3F81F40D
:100B5000F894809378030BC00E94B90081E00E9452
:100B600050016091790383E00E940B01B3C0FFCF75
:100B700061E081E1ADC0643069F481E00E94500120
:100B80004091DB026CED72E088E00E946E011092F1
:100B9000DB02A0C0653019F460E082E199C06730E3
:100BA000B1F580914503823009F0B6CF80914603BC
:100BB0002091470330E0382BC091CF02CC2329F09D
:100BC00080E80E9450014C2F38C085E08093CF020E
:100BD0008091D9029091DA029093D5028093D40249
:100BE0001092C100519A5998AAEFB0E00E940907EB
:100BF000DC01CB0124E0B695A795979587952A95BA
:100C0000D1F70196A11DB11D0E94770063C0683025
:100C100009F05AC0C0914503CC2309F47DCFC532F9
:100C200020F061E06C0F85E053C0B090CF02BB2094
:100C300031F080E80E9450014B2D68E02CC0AC2EB2
:100C4000B12CA50166E473E08AE692E00E941807E1
:100C5000E6E4F3E080E090E02191820F9F5FC9130A
:100C6000FBCFF501E759FD4F8183CF5FC093690248
:100C70001093CF028091D9029091DA029093D5021D
:100C80008093D4028091C00085FD09C080E80E9455
:100C9000500140E064E180E10E9425011BC0809189
:100CA0006702909168020E9477001092D30200932D
:100CB000C100809146038093C600F092C100D0939A
:100CC000D802E092C10006C0693009F465CF80E126
:100CD0000E94600180910F038111D0930E03109246
:100CE0004403109245031092430378940000F89453
:100CF0008091CF02843049F5E0919C02E11102C05D
:100D00006CE603C0E13019F460E78FE01CC0F0E04E
:100D1000E556FD4F91818091D202981781F0809124
:100D2000D302882329F0C092C60060E089E00BC09E
:100D3000D092C600D093D3020E948E0006C01092BB
:100D4000C60060E081E00E949B008091CF02863067
:100D500009F03FC080910F0381113BC0B090D002D9
:100D6000C0919C0281E00E9450014091D1026B2D04
:100D700080E10E9425014091D6025091D7028091D6
:100D8000D6029091D702692F82E10E94250181E06D
:100D9000B81202C0C111C1504C2F6DE972E081E15F
:100DA0000E946E0140913302442379F02091100398
:100DB000842F90E0820F911D8C973CF464E372E0E5
:100DC00081E20E946E0110923302D0930E030E94C2
:100DD000B900789400008FEA94E00197F1F700C021
:100DE00000004BCE1F920F920FB60F9211248F93DB
:100DF0009F938091D9029091DA0201969093DA0242
:100E00008093D9029F918F910F900FBE0F901F90EA
:100E10001895A29FB001B39FC001A39F700D811DC3
:100E20001124911DB29F700D811D1124911D0895F3
:100E3000FB01DC0102C001900D9241505040D8F7F7
:060E40000895F894FFCFB5
:100E46000093B526F96A4CDF61F2D447980B2DBEA4
:100E5600C25177E43BA88E1DA33016855AC9EF7C94
:100E66001784A231EE7D5BC876E5C3508F1C3AA984
:100E7600D54660F32CBF990AB42701924DDEF86B74
:100E86002EBD9B08D74462F14FDCFA69B625039064
:100E9600EC7F59CA1586A0338D1E38AB74E7C15254
:100EA60039AA8C1FC05375E658CBED7EA132148744
:100EB600FB684EDD0291B7249A092FBC63F0D64534
:100EC6005CCFE97AA53610833DAE881BC45771E224
:100ED6009E0D2BB867F4D241FF6C4AD90695B32014
:100EE6004BD8FE6DB22107942AB99F0CD34066F504
:100EF600891A3CAF70E3C556E87B5DCE1182A437F4
:100F060072E1C7548B183EAD1380A635EA795FCCE3
:100F1600B023059649DAFC6FD14264F728BB9D0ED3
:100F260065F6D0439C0F29BA0497B122FD6E48DBC3
:100F3600A73412815ECDEB78C65573E03FAC8A19B3
:00000001FF
