:100000000C9434000C946E000C946E000C94040359
:100010000C946E000C946E000C946E000C946E00A8
:100020000C946E000C946E000C946E000C946E0098
:100030000C946E000C94C7020C94FB070C946E0099
:100040000C946E000C946E000C94B9010C94480250
:100050000C9492020C946E000C946E000C946E0042
:100060000C94D4040C946E0011241FBECFEFD8E082
:10007000DEBFCDBF0FB6F894A8958091600088616F
:1000800080936000109260000FBEF89484B7809354
:10009000790314BE8091790383FF07C090917803A0
:1000A000992319F0877F809379031092780312E0E7
:1000B000A0E0B1E0E8E5F0E102C005900D92A030CB
:1000C000B107D9F723E0A0E0B2E001C01D92A83744
:1000D000B207E1F70E945F050C942A080C94000017
:1000E00090911003282F30E0290F311D2B5F3F4FD7
:1000F0002233310554F190911003292F30E0A901EA
:100100004F5F5F4F4333510544F4F901E25FFC4F09
:1001100049E043839F5F9093100390911003292F30
:1001200030E0A9014E5F5F4F433351054CF4F901B4
:10013000E25FFC4F25E0238384839E5F909310034E
:1001400081E080930E0380E0089581E00895CF93CD
:10015000DF93E1E8F0E01082A0E8B0E01C92CFE687
:10016000D0E01882919581959109909385008093B4
:10017000840081E088831C9285E08083DF91CF91A9
:10018000089510929C02EFECF2E0138283E08083EA
:1001900080916702909168020E94A70008959CE9EF
:1001A0009093C100EFECF2E0818362838091D902E9
:1001B0009091DA0225813681821B930B9087878389
:1001C00086E0808308958EBD0DB407FC0AC01A9B9B
:1001D000FBCF08956EBD0DB407FC05C01A9BFBCF85
:1001E00008958EB5F7CF8EB5F5CF1092810010929D
:1001F000800010926F0010929C0210926902EFEC46
:10020000F2E08AE0DF011D928A95E9F710820895F5
:10021000FC01319622E3DF011D922A95E9F7FC01EA
:1002200010820895CF93DF93D82FC62F82E00E94CB
:100230007000882391F020911003822F90E0AC0190
:100240004E5F5F4F4333510544F4FC01E25FFC4FC6
:10025000D383C4832E5F20931003DF91CF91089541
:100260001F93CF93DF93182FD62FC42F83E00E94C4
:100270007000882319F180911003282F30E0A90124
:100280004F5F5F4F433351053CF4F901E25FFC4F90
:1002900013838F5F8093100320911003822F90E0CF
:1002A000AC014E5F5F4F4333510544F4FC01E25F04
:1002B000FC4FD383C4832E5F20931003DF91CF9133
:1002C0001F91089590910F0391110BC080930F031C
:1002D0008091D9029091DA02482F692F82E00E9422
:1002E00030010895CF93DF93C82FD62F80E80E9466
:1002F00062014D2F6C2F89E00E943001DF91CF9178
:1003000008950F931F93CF93DF93D82F8B01C42FA2
:1003100082E0840F0E947000882331F12091100345
:10032000822F90E0AC014E5F5F4F4333510544F4A0
:10033000FC01E25FFC4FD383C4832E5F2093100344
:10034000D09110038C2F90E08D0F911DC39764F412
:100350008D2F90E04C2F50E0B8018F5E9C4F0E9493
:100360002108CD0FC0931003DF91CF911F910F9102
:1003700008951F920F920FB60F9211242F933F935F
:100380004F935F936F937F938F939F93AF93BF939D
:10039000EF93FF93109281001092800010926F00F3
:1003A0008091C0004091C1006091C600982F9C715F
:1003B000C1F084FF06C0682F6C7081E10E94CF00FD
:1003C00056C083FF06C0682F647182E10E94CF008F
:1003D0004EC082FF4CC0682F687183E10E94CF003D
:1003E00046C08091CF028250823020F080E10E948E
:1003F000CF003DC080919C02282F30E0F90131965A
:10040000F3978CF5F901E456FD4F61838F5F80937C
:100410009C0241FD0CC0EFECF2E08381680F638326
:1004200080916702909168020E94A70020C080918D
:100430009C028130A1F4662319F06F3F31F00AC0AD
:1004400060E081E00E94CF0012C060E08AE00E947C
:10045000CF000DC060E08CE00E94CF0008C084E0B7
:100460008093CF0204C060E08DE00E94CF00FF9136
:10047000EF91BF91AF919F918F917F916F915F911C
:100480004F913F912F910F900FBE0F901F90189595
:100490001F920F920FB60F9211242F933F934F93F9
:1004A0005F936F937F938F939F93AF93BF93EF93DC
:1004B000FF93109281001092800010926F00609163
:1004C000D80290916902691720F08EE00E94CF0057
:1004D00018C0E62FF0E0E759FD4F2181EFECF2E084
:1004E00081858F5F81878185981303C08CED809310
:1004F000C1002093C60080916702909168020E941B
:10050000A700FF91EF91BF91AF919F918F917F9144
:100510006F915F914F913F912F910F900FBE0F9070
:100520001F9018951F920F920FB60F9211242F93C0
:100530003F934F935F936F937F938F939F93AF936B
:10054000BF93EF93FF93109281001092800010925E
:100550006F008CE98093C1006091CF02623021F07E
:1005600085E10E94CF0002C00E94C100FF91EF917F
:10057000BF91AF919F918F917F916F915F914F91BB
:100580003F912F910F900FBE0F901F9018951F92C3
:100590000F920FB60F9211242F933F934F935F93B7
:1005A0006F937F938F939F93AF93BF93EF93FF933B
:1005B000109281001092800010926F006091CF0223
:1005C000653029F460E081E00E94CF000CC08EEF1E
:1005D000860F823020F48BE00E94CF0004C061E0DF
:1005E00088E10E94CF00FF91EF91BF91AF919F9161
:1005F0008F917F916F915F914F913F912F910F90CC
:100600000FBE0F901F9018951F920F920FB60F926A
:1006100011242F933F934F935F936F937F938F9307
:100620009F93AF93BF93CF93EF93FF931A99AAC170
:1006300090910E0320914303992311F084E401C0AB
:1006400084E0211180688EBD0DB407FCEFC01A9BB9
:10065000FBCF98C11EBC0DB407FCEFC01A9BFBCFAB
:1006600091C10DB407FCECC01A9BFBCF8BC1807FFE
:10067000803409F43EC0803809F4B4C08111CFC081
:1006800091110DC01EBC0DB407FCE0C01A9BFBCF3E
:1006900079C10DB407FCDDC01A9BFBCF73C19091EB
:1006A0001003E1E0E90FEEBD0DB407FCD8C01A9BC2
:1006B000FBCF68C10DB407FCDBC01A9BFBCF62C146
:1006C0004FEF490F50E04F5F5F4F20E030E0F901FE
:1006D000E25FFC4FE381EEBD0DB407FCD2C01A9B74
:1006E000FBCF50C18EBD0DB407FCD9C01A9BFBCF08
:1006F00049C1222369F01EBC0DB407FCD8C01A9B67
:10070000FBCF40C10DB407FCD5C01A9BFBCF3AC14B
:100710001EBC0DB407FCD4C01A9BFBCF33C16EEFD7
:1007200082E00E94E3002EC1C23328F06EEF85E024
:100730000E94E30027C1EC2FF0E0E050FF4F8081E2
:10074000A0E0B2E0C1504C2F50E09A012F5F3D4F26
:100750001EBC0DB407FCB8C01A9BFBCF13C11EBC56
:100760000DB407FCBEC01A9BFBCF0CC10DB407FC37
:10077000BBC01A9BFBCF06C10DB407FCB9C01A9BC6
:10078000FBCF00C10DB407FCB6C01A9BFBCFFAC06B
:100790000DB407FCB9C01A9BFBCFF4C00DB407FC25
:1007A000BBC01A9BFBCFEEC06EEF82E00E94E3005D
:1007B000E9C0E3E4F3E012821082809100028183B9
:1007C000C33340F461E072E086E493E00E942108C4
:1007D000C093450381E08093430361E080E00E9481
:1007E000E300D0C082E08EBD0DB407FC9AC01A9B16
:1007F000FBCFC8C00DB407FC9AC01A9BFBCFC2C088
:100800000DB407FC9FC01A9BFBCFBCC00DB407FC06
:10081000A1C01A9BFBCFB6C09313A0C0A4C01EBC3E
:100820000DB407FCAAC01A9BFBCFACC08EB5382F05
:100830003F70343009F00ECF1ACF8EB51EBC11CFE9
:100840008EB56EEF81E00E94E3009CC08EB51EBCA9
:1008500020CF8EB561E080E00E94E30093C08EB5AA
:10086000F0E0E050FF4F8081E0910F03EEBD22CF1A
:100870002EB5E827F0E0E050FF4F8081911120CFA6
:1008800031CF9EB58E27E82FF0E0E050FF4F8081FA
:100890002F5F3F4F2417350709F019CF23CF9EB59F
:1008A0008093660261E080E00E94E3006BC08EB539
:1008B0001EBC28CF8EB56EEF83E00E94E30062C0BD
:1008C000CEB5C11131CF2BCFEEB5ED938E27E82FEA
:1008D000F0E0E050FF4F8081A217B30709F038CF56
:1008E0003ECF9EB51EBC42CF2EB52FEF2EBD44CFBE
:1008F0002EB58EBD47CF2EB5E9E1E827F0E0E050F8
:10090000FF4FE0819EBD44CF2EB5E927F0E0E050D7
:10091000FF4F20812EBD42CF2EB5981709F449CF45
:1009200043CF8EB5809110038F5F8EBD63CFE5EB13
:10093000E827F0E0E050FF4FE0812EB5909166028D
:100940009EBD5ECFE927F0E0E050FF4F40813EB50D
:100950004EBD5CCF4EB5821709F45ECF6EEF84E0DA
:100960000E94E3000FC0EEE0F3E0118212821082D9
:1009700061E080E00E94E30005C08EB56EEF81E08B
:100980000E94E300FF91EF91CF91BF91AF919F91B2
:100990008F917F916F915F914F913F912F910F9028
:1009A0000FBE0F901F9018951F920F920FB60F92C7
:1009B00011242F933F934F935F938F939F93EF93C4
:1009C000FF938091B900887F8039D9F198F48037FE
:1009D000A1F138F4803689F1883649F1882309F18C
:1009E0005EC0803871F1883809F443C0883709F057
:1009F00056C01DC0883B09F448C048F4803A09F449
:100A00004AC0883AE1F1883909F049C032C0883CCF
:100A100009F441C0883F09F445C0803C09F03FC05B
:100A20003AC085E98093BC00109233023BC010921B
:100A3000BB0085EC8093BC0035C085EC8093BC0086
:100A400031C03091BB0085EC8093BC002091330213
:100A5000822F90E0AC014E5F5F4F4333510514F598
:100A6000FC01ED5CFD4F118232832E5F2093330237
:100A700019C08091BB0085EC8093BC0013C010921C
:100A8000BB0085EC8093BC000DC01092BB0085E8D4
:100A90008093BC0007C085EC8093BC0003C085EC4C
:100AA0008093BC00FF91EF919F918F915F914F9147
:100AB0003F912F910F900FBE0F901F901895F894B3
:100AC0009BE088E10FB6F894A895809360000FBE74
:100AD00090936000A89514BC15BCEEE6F0E010827F
:100AE000109281001092800010926F000F2EF8E695
:100AF000CF2ED12CF02DD6011C920F2EFBE6EF2E1F
:100B0000F12CF02DD7011C921092DA021092D9022A
:100B100016BC83E187BD82E0808384BD85BD529A87
:100B20000CEB10E0F8018081816080835A988BED96
:100B300092E00E940801E3E4F3E011821282108245
:100B4000CEE0D3E019821A8218828CE992E00E94EA
:100B5000080189E692E00E9408010E94F5001092C7
:100B6000C50087E68093C40086E08093C2008CE9CC
:100B70008093C1008EE590E09093680280936702B5
:100B8000A895D8011C921092B80080EF8093BA000B
:100B90001092B90083E392E00E94080185ECF8010D
:100BA0008083249A80E48CBD1DBC8DB58EB5D601A2
:100BB0008C9181608C93F701808184608083EAE767
:100BC000F0E080818F77808381E48093640082E00D
:100BD0000E94620143E062E081E00E943001609186
:100BE000790383E00E94120181E088830F2EF3E3F2
:100BF000CF2EF2E0DF2EF02D4E01CFECD2E05524C7
:100C000053940F2EF3E4EF2EF3E0FF2EF02D6894B3
:100C1000222421F80F2EF1EC6F2E712CF02D0F2EC7
:100C2000FCE9AF2EF2E0BF2EF02DA895F894D60186
:100C30004C904420A1F0F4018181811110C0888181
:100C400081110DC083E00E946201442D64E372E0D3
:100C500081E20E948101D6011C92F40150827894B5
:100C60000000F894D40111968C91882359F01A9BB6
:100C700009C0F8018081853451F480818E7F8083A2
:100C80005A9A05C0D8018C9181608C935A987894B7
:100C90000000F894F7018081882309F42DC1D40164
:100CA00011968C91811128C161816130B1F48281EA
:100CB000882329F060E081E10E94720113C1852D33
:100CC0000E94620143E0622D852D0E9430016091F7
:100CD000790383E00E94120105C1623039F4109259
:100CE000790360E082E10E947201FCC0633021F56B
:100CF000F7018281813029F060E081E10E94720178
:100D0000F1C08381813019F08F3F61F010C00E94E3
:100D1000F500852D0E9462016091790383E00E94B5
:100D20001201E0C0F89481E080937803FFCF652D35
:100D300081E10E947201D6C0643079F4852D0E9451
:100D40006201EBEDF2E040816CED72E088E00E9420
:100D50008101ABEDB2E01C92C5C0653029F460E0C2
:100D600082E10E947201BEC06730C9F5F70182813D
:100D7000823029F060E081E10E947201B3C083817A
:100D8000248130E0382B4880442049F080E80E94DC
:100D90006201442D68E080E10E943001A3C085E03B
:100DA00088838091D9029091DA029E838D83F3012A
:100DB0001082519A5998AAEFB0E00E941208DC0103
:100DC000CB01689413F8B695A795979587951694D7
:100DD000D1F70196A11DB11D0E94A70083C0683004
:100DE00009F076C04280411005C060E081E10E94B8
:100DF000720178C0B4E2B41530F461E0640D85E0AE
:100E00000E9472016FC03880332049F080E80E9450
:100E10006201432D68E080E10E94300163C0E2E39B
:100E2000E41558F0442D50E066E473E08AE692E061
:100E30000E942108A9E6B2E04C92E6E4F3E08FEFCD
:100E4000840D90E0895B9C4F40E02191420FE817B0
:100E5000F907D9F7E9E6F2E08081282F30E0B901FF
:100E60006F5F7F4F6333710544F4F901E759FD4F1C
:100E700041838F5FA9E6B2E08C9328828091D902EA
:100E80009091DA029E838D83E0ECF0E0808185FD15
:100E900009C080E80E94620140E064E180E10E94B4
:100EA000300120C080916702909168020E94A700E3
:100EB0001C828DE9D3018C93F7018381A6ECB0E00D
:100EC0008C938CE9F301808359868CEB80830AC074
:100ED000693029F460E082E10E94720103C080E180
:100EE0000E947201D40111968C91119781115C922C
:100EF000F70111821282108278940000F8948881A0
:100F0000843091F5D501EC91E11105C06CE68FE0DC
:100F10000E94CF0029C0E13029F460E78FE00E94F1
:100F2000CF0022C0F0E0E556FD4F91818B819817EC
:100F3000A1F08C81882349F08FEFE6ECF0E080830C
:100F400060E089E00E94CF000FC08AEAA6ECB0E022
:100F50008C935C820E94C10007C0E6ECF0E0108236
:100F600060E0852D0E94CF0088818630D9F5D401BC
:100F700011968C91811136C03980F5014080852D04
:100F80000E9462014A81632D80E10E9430014F81FD
:100F900058858F819885692F82E10E943001F1E0A8
:100FA0003F1202C041104A94442D6DE972E081E184
:100FB0000E948101D6014C91442381F0F4012281E9
:100FC000842F90E0820F911D0596C1973CF464E355
:100FD00072E081E20E948101D6011C92F4015082EC
:100FE0000E94F500789400008FEA94E00197F1F7F1
:100FF00000C000001ACE1F920F920FB60F9211245C
:101000008F939F938091D9029091DA0201969093E9
:10101000DA028093D9029F918F910F900FBE0F90AB
:101020001F901895A29FB001B39FC001A39F700DA0
:10103000811D1124911DB29F700D811D1124911DE0
:101040000895FB01DC0102C001900D924150504017
:08105000D8F70895F894FFCFD2
:101058000093B526F96A4CDF61F2D447980B2DBE90
:10106800C25177E43BA88E1DA33016855AC9EF7C80
:101078001784A231EE7D5BC876E5C3508F1C3AA970
:10108800D54660F32CBF990AB42701924DDEF86B60
:101098002EBD9B08D74462F14FDCFA69B625039050
:1010A800EC7F59CA1586A0338D1E38AB74E7C15240
:1010B80039AA8C1FC05375E658CBED7EA132148730
:1010C800FB684EDD0291B7249A092FBC63F0D64520
:1010D8005CCFE97AA53610833DAE881BC45771E210
:1010E8009E0D2BB867F4D241FF6C4AD90695B32000
:1010F8004BD8FE6DB22107942AB99F0CD34066F5F0
:10110800891A3CAF70E3C556E87B5DCE1182A437DF
:1011180072E1C7548B183EAD1380A635EA795FCCCF
:10112800B023059649DAFC6FD14264F728BB9D0EBF
:1011380065F6D0439C0F29BA0497B122FD6E48DBAF
:10114800A73412815ECDEB78C65573E03FAC8A199F
:00000001FF
